{
  "_format": "hh-sol-artifact-1",
  "contractName": "MyERC1155",
  "sourceName": "contracts/MyERC1155.sol",
  "abi": [
    {
      "inputs": [],
      "stateMutability": "nonpayable",
      "type": "constructor"
    },
    {
      "anonymous": false,
      "inputs": [
        {
          "indexed": true,
          "internalType": "address",
          "name": "account",
          "type": "address"
        },
        {
          "indexed": true,
          "internalType": "address",
          "name": "operator",
          "type": "address"
        },
        {
          "indexed": false,
          "internalType": "bool",
          "name": "approved",
          "type": "bool"
        }
      ],
      "name": "ApprovalForAll",
      "type": "event"
    },
    {
      "anonymous": false,
      "inputs": [
        {
          "indexed": true,
          "internalType": "address",
          "name": "previousOwner",
          "type": "address"
        },
        {
          "indexed": true,
          "internalType": "address",
          "name": "newOwner",
          "type": "address"
        }
      ],
      "name": "OwnershipTransferred",
      "type": "event"
    },
    {
      "anonymous": false,
      "inputs": [
        {
          "indexed": true,
          "internalType": "address",
          "name": "operator",
          "type": "address"
        },
        {
          "indexed": true,
          "internalType": "address",
          "name": "from",
          "type": "address"
        },
        {
          "indexed": true,
          "internalType": "address",
          "name": "to",
          "type": "address"
        },
        {
          "indexed": false,
          "internalType": "uint256[]",
          "name": "ids",
          "type": "uint256[]"
        },
        {
          "indexed": false,
          "internalType": "uint256[]",
          "name": "values",
          "type": "uint256[]"
        }
      ],
      "name": "TransferBatch",
      "type": "event"
    },
    {
      "anonymous": false,
      "inputs": [
        {
          "indexed": true,
          "internalType": "address",
          "name": "operator",
          "type": "address"
        },
        {
          "indexed": true,
          "internalType": "address",
          "name": "from",
          "type": "address"
        },
        {
          "indexed": true,
          "internalType": "address",
          "name": "to",
          "type": "address"
        },
        {
          "indexed": false,
          "internalType": "uint256",
          "name": "id",
          "type": "uint256"
        },
        {
          "indexed": false,
          "internalType": "uint256",
          "name": "value",
          "type": "uint256"
        }
      ],
      "name": "TransferSingle",
      "type": "event"
    },
    {
      "anonymous": false,
      "inputs": [
        {
          "indexed": false,
          "internalType": "string",
          "name": "value",
          "type": "string"
        },
        {
          "indexed": true,
          "internalType": "uint256",
          "name": "id",
          "type": "uint256"
        }
      ],
      "name": "URI",
      "type": "event"
    },
    {
      "inputs": [
        {
          "internalType": "address",
          "name": "account",
          "type": "address"
        },
        {
          "internalType": "uint256",
          "name": "id",
          "type": "uint256"
        }
      ],
      "name": "balanceOf",
      "outputs": [
        {
          "internalType": "uint256",
          "name": "",
          "type": "uint256"
        }
      ],
      "stateMutability": "view",
      "type": "function"
    },
    {
      "inputs": [
        {
          "internalType": "address[]",
          "name": "accounts",
          "type": "address[]"
        },
        {
          "internalType": "uint256[]",
          "name": "ids",
          "type": "uint256[]"
        }
      ],
      "name": "balanceOfBatch",
      "outputs": [
        {
          "internalType": "uint256[]",
          "name": "",
          "type": "uint256[]"
        }
      ],
      "stateMutability": "view",
      "type": "function"
    },
    {
      "inputs": [
        {
          "internalType": "address",
          "name": "account",
          "type": "address"
        },
        {
          "internalType": "uint256",
          "name": "id",
          "type": "uint256"
        },
        {
          "internalType": "uint256",
          "name": "amount",
          "type": "uint256"
        }
      ],
      "name": "burn",
      "outputs": [],
      "stateMutability": "nonpayable",
      "type": "function"
    },
    {
      "inputs": [
        {
          "internalType": "address",
          "name": "account",
          "type": "address"
        },
        {
          "internalType": "address",
          "name": "operator",
          "type": "address"
        }
      ],
      "name": "isApprovedForAll",
      "outputs": [
        {
          "internalType": "bool",
          "name": "",
          "type": "bool"
        }
      ],
      "stateMutability": "view",
      "type": "function"
    },
    {
      "inputs": [
        {
          "internalType": "address",
          "name": "account",
          "type": "address"
        },
        {
          "internalType": "uint256",
          "name": "id",
          "type": "uint256"
        },
        {
          "internalType": "uint256",
          "name": "amount",
          "type": "uint256"
        },
        {
          "internalType": "bytes",
          "name": "data",
          "type": "bytes"
        }
      ],
      "name": "mint",
      "outputs": [],
      "stateMutability": "nonpayable",
      "type": "function"
    },
    {
      "inputs": [],
      "name": "owner",
      "outputs": [
        {
          "internalType": "address",
          "name": "",
          "type": "address"
        }
      ],
      "stateMutability": "view",
      "type": "function"
    },
    {
      "inputs": [],
      "name": "renounceOwnership",
      "outputs": [],
      "stateMutability": "nonpayable",
      "type": "function"
    },
    {
      "inputs": [
        {
          "internalType": "address",
          "name": "from",
          "type": "address"
        },
        {
          "internalType": "address",
          "name": "to",
          "type": "address"
        },
        {
          "internalType": "uint256[]",
          "name": "ids",
          "type": "uint256[]"
        },
        {
          "internalType": "uint256[]",
          "name": "amounts",
          "type": "uint256[]"
        },
        {
          "internalType": "bytes",
          "name": "data",
          "type": "bytes"
        }
      ],
      "name": "safeBatchTransferFrom",
      "outputs": [],
      "stateMutability": "nonpayable",
      "type": "function"
    },
    {
      "inputs": [
        {
          "internalType": "address",
          "name": "from",
          "type": "address"
        },
        {
          "internalType": "address",
          "name": "to",
          "type": "address"
        },
        {
          "internalType": "uint256",
          "name": "id",
          "type": "uint256"
        },
        {
          "internalType": "uint256",
          "name": "amount",
          "type": "uint256"
        },
        {
          "internalType": "bytes",
          "name": "data",
          "type": "bytes"
        }
      ],
      "name": "safeTransferFrom",
      "outputs": [],
      "stateMutability": "nonpayable",
      "type": "function"
    },
    {
      "inputs": [
        {
          "internalType": "address",
          "name": "operator",
          "type": "address"
        },
        {
          "internalType": "bool",
          "name": "approved",
          "type": "bool"
        }
      ],
      "name": "setApprovalForAll",
      "outputs": [],
      "stateMutability": "nonpayable",
      "type": "function"
    },
    {
      "inputs": [
        {
          "internalType": "bytes4",
          "name": "interfaceId",
          "type": "bytes4"
        }
      ],
      "name": "supportsInterface",
      "outputs": [
        {
          "internalType": "bool",
          "name": "",
          "type": "bool"
        }
      ],
      "stateMutability": "view",
      "type": "function"
    },
    {
      "inputs": [
        {
          "internalType": "address",
          "name": "newOwner",
          "type": "address"
        }
      ],
      "name": "transferOwnership",
      "outputs": [],
      "stateMutability": "nonpayable",
      "type": "function"
    },
    {
      "inputs": [
        {
          "internalType": "uint256",
          "name": "",
          "type": "uint256"
        }
      ],
      "name": "uri",
      "outputs": [
        {
          "internalType": "string",
          "name": "",
          "type": "string"
        }
      ],
      "stateMutability": "view",
      "type": "function"
    }
  ],
  "bytecode": "0x60806040523480156200001157600080fd5b506040518060600160405280602881526020016200227d60289139620000378162000077565b506200004c6200004662000090565b62000095565b62000071336001606460405180602001604052806000815250620000e760201b60201c565b62000792565b80516200008c906002906020840190620003cd565b5050565b335b90565b600380546001600160a01b038381166001600160a01b0319831681179093556040519116919082907f8be0079c531659141344cd1fd0a4f28419497f9722a3daafe3b4186f6b6457e090600090a35050565b6001600160a01b038416620001195760405162461bcd60e51b8152600401620001109062000596565b60405180910390fd5b60006200012562000090565b90506000620001348562000214565b90506000620001438562000214565b905062000156836000898585896200026e565b6000868152602081815260408083206001600160a01b038b168452909152812080548792906200018890849062000642565b92505081905550866001600160a01b031660006001600160a01b0316846001600160a01b03167fc3d58168c5ae7397731d063d5bbf3d657854427343f4c083240f7aacaa2d0f628989604051620001e192919062000634565b60405180910390a4620001fa836000898585896200026e565b6200020b8360008989898962000276565b50505050505050565b604080516001808252818301909252606091600091906020808301908036833701905050905082816000815181106200025d57634e487b7160e01b600052603260045260246000fd5b602090810291909101015292915050565b505050505050565b62000295846001600160a01b0316620003be60201b620005dc1760201c565b156200026e5760405163f23a6e6160e01b81526001600160a01b0385169063f23a6e6190620002d19089908990889088908890600401620004f2565b602060405180830381600087803b158015620002ec57600080fd5b505af19250505080156200031f575060408051601f3d908101601f191682019092526200031c9181019062000473565b60015b6200038b576200032e620006df565b806308c379a014156200036f575062000346620006f7565b8062000353575062000371565b8060405162461bcd60e51b815260040162000110919062000539565b505b60405162461bcd60e51b81526004016200011090620005d7565b6001600160e01b0319811663f23a6e6160e01b146200020b5760405162461bcd60e51b815260040162000110906200054e565b6001600160a01b03163b151590565b828054620003db9062000667565b90600052602060002090601f016020900481019282620003ff57600085556200044a565b82601f106200041a57805160ff19168380011785556200044a565b828001600101855582156200044a579182015b828111156200044a5782518255916020019190600101906200042d565b50620004589291506200045c565b5090565b5b808211156200045857600081556001016200045d565b60006020828403121562000485578081fd5b81516001600160e01b0319811681146200049d578182fd5b9392505050565b60008151808452815b81811015620004cb57602081850181015186830182015201620004ad565b81811115620004dd5782602083870101525b50601f01601f19169290920160200192915050565b6001600160a01b03868116825285166020820152604081018490526060810183905260a0608082018190526000906200052e90830184620004a4565b979650505050505050565b6000602082526200049d6020830184620004a4565b60208082526028908201527f455243313135353a204552433131353552656365697665722072656a656374656040820152676420746f6b656e7360c01b606082015260800190565b60208082526021908201527f455243313135353a206d696e7420746f20746865207a65726f206164647265736040820152607360f81b606082015260800190565b60208082526034908201527f455243313135353a207472616e7366657220746f206e6f6e2d4552433131353560408201527f526563656976657220696d706c656d656e746572000000000000000000000000606082015260800190565b918252602082015260400190565b600082198211156200066257634e487b7160e01b81526011600452602481fd5b500190565b6002810460018216806200067c57607f821691505b602082108114156200069e57634e487b7160e01b600052602260045260246000fd5b50919050565b601f8201601f191681016001600160401b0381118282101715620006d857634e487b7160e01b600052604160045260246000fd5b6040525050565b600060033d11156200009257600481823e5160e01c90565b600060443d1015620007095762000092565b6040516003193d81016004833e81513d6001600160401b0380831160248401831017156200073c57505050505062000092565b8285019150815181811115620007585750505050505062000092565b843d8701016020828501011115620007765750505050505062000092565b6200078760208286010187620006a4565b509094505050505090565b611adb80620007a26000396000f3fe608060405234801561001057600080fd5b50600436106100ce5760003560e01c8063731133e91161008c578063e985e9c511610066578063e985e9c5146101b4578063f242432a146101c7578063f2fde38b146101da578063f5298aca146101ed576100ce565b8063731133e9146101795780638da5cb5b1461018c578063a22cb465146101a1576100ce565b8062fdd58e146100d357806301ffc9a7146100fc5780630e89341c1461011c5780632eb2c2d61461013c5780634e1273f414610151578063715018a614610171575b600080fd5b6100e66100e1366004611196565b610200565b6040516100f391906118e4565b60405180910390f35b61010f61010a366004611319565b610257565b6040516100f391906114e6565b61012f61012a366004611351565b61029f565b6040516100f391906114f1565b61014f61014a366004611053565b610333565b005b61016461015f366004611250565b610391565b6040516100f391906114a5565b61014f6104b1565b61014f6101873660046111f1565b6104c5565b6101946104df565b6040516100f391906113ee565b61014f6101af36600461115c565b6104ef565b61010f6101c2366004611021565b610505565b61014f6101d53660046110f9565b610533565b61014f6101e8366004611000565b61058a565b61014f6101fb3660046111bf565b6105c4565b60006001600160a01b0383166102315760405162461bcd60e51b8152600401610228906115d6565b60405180910390fd5b506000908152602081815260408083206001600160a01b03949094168352929052205490565b60006001600160e01b03198216636cdb3d1360e11b148061028857506001600160e01b031982166303a24d0760e21b145b806102975750610297826105eb565b90505b919050565b6060600280546102ae90611937565b80601f01602080910402602001604051908101604052809291908181526020018280546102da90611937565b80156103275780601f106102fc57610100808354040283529160200191610327565b820191906000526020600020905b81548152906001019060200180831161030a57829003601f168201915b50505050509050919050565b61033b610604565b6001600160a01b0316856001600160a01b031614806103615750610361856101c2610604565b61037d5760405162461bcd60e51b815260040161022890611620565b61038a8585858585610608565b5050505050565b606081518351146103b45760405162461bcd60e51b8152600401610228906117be565b6000835167ffffffffffffffff8111156103de57634e487b7160e01b600052604160045260246000fd5b604051908082528060200260200182016040528015610407578160200160208202803683370190505b50905060005b84518110156104a95761046e85828151811061043957634e487b7160e01b600052603260045260246000fd5b602002602001015185838151811061046157634e487b7160e01b600052603260045260246000fd5b6020026020010151610200565b82828151811061048e57634e487b7160e01b600052603260045260246000fd5b60209081029190910101526104a28161199f565b905061040d565b509392505050565b6104b96107e7565b6104c36000610826565b565b6104cd6107e7565b6104d984848484610878565b50505050565b6003546001600160a01b03165b90565b6105016104fa610604565b8383610989565b5050565b6001600160a01b03918216600090815260016020908152604080832093909416825291909152205460ff1690565b61053b610604565b6001600160a01b0316856001600160a01b031614806105615750610561856101c2610604565b61057d5760405162461bcd60e51b815260040161022890611620565b61038a8585858585610a2c565b6105926107e7565b6001600160a01b0381166105b85760405162461bcd60e51b81526004016102289061154c565b6105c181610826565b50565b6105cc6107e7565b6105d7838383610b89565b505050565b6001600160a01b03163b151590565b6001600160e01b031981166301ffc9a760e01b14919050565b3390565b81518351146106295760405162461bcd60e51b815260040161022890611807565b6001600160a01b03841661064f5760405162461bcd60e51b81526004016102289061166e565b6000610659610604565b90506106698187878787876107df565b60005b845181101561076b57600085828151811061069757634e487b7160e01b600052603260045260246000fd5b6020026020010151905060008583815181106106c357634e487b7160e01b600052603260045260246000fd5b602090810291909101810151600084815280835260408082206001600160a01b038e1683529093529190912054909150818110156107135760405162461bcd60e51b8152600401610228906116f6565b6000838152602081815260408083206001600160a01b038e8116855292528083208585039055908b1682528120805484929061075090849061191f565b92505081905550505050806107649061199f565b905061066c565b50846001600160a01b0316866001600160a01b0316826001600160a01b03167f4a39dc06d4c0dbc64b70af90fd698a233a518aa5d07e595d983b8c0526c8f7fb87876040516107bb9291906114b8565b60405180910390a46107d18187878787876107df565b6107df818787878787610cb9565b505050505050565b6107ef610604565b6001600160a01b03166108006104df565b6001600160a01b0316146104c35760405162461bcd60e51b815260040161022890611740565b600380546001600160a01b038381166001600160a01b0319831681179093556040519116919082907f8be0079c531659141344cd1fd0a4f28419497f9722a3daafe3b4186f6b6457e090600090a35050565b6001600160a01b03841661089e5760405162461bcd60e51b81526004016102289061184f565b60006108a8610604565b905060006108b585610dde565b905060006108c285610dde565b90506108d3836000898585896107df565b6000868152602081815260408083206001600160a01b038b1684529091528120805487929061090390849061191f565b92505081905550866001600160a01b031660006001600160a01b0316846001600160a01b03167fc3d58168c5ae7397731d063d5bbf3d657854427343f4c083240f7aacaa2d0f62898960405161095a9291906118ed565b60405180910390a4610971836000898585896107df565b61098083600089898989610e37565b50505050505050565b816001600160a01b0316836001600160a01b031614156109bb5760405162461bcd60e51b815260040161022890611775565b6001600160a01b0383811660008181526001602090815260408083209487168084529490915290819020805460ff1916851515179055517f17307eab39ab6107e8899845ad3d59bd9653f200f220920489ca2b5937696c3190610a1f9085906114e6565b60405180910390a3505050565b6001600160a01b038416610a525760405162461bcd60e51b81526004016102289061166e565b6000610a5c610604565b90506000610a6985610dde565b90506000610a7685610dde565b9050610a868389898585896107df565b6000868152602081815260408083206001600160a01b038c16845290915290205485811015610ac75760405162461bcd60e51b8152600401610228906116f6565b6000878152602081815260408083206001600160a01b038d8116855292528083208985039055908a16825281208054889290610b0490849061191f565b92505081905550876001600160a01b0316896001600160a01b0316856001600160a01b03167fc3d58168c5ae7397731d063d5bbf3d657854427343f4c083240f7aacaa2d0f628a8a604051610b5a9291906118ed565b60405180910390a4610b70848a8a86868a6107df565b610b7e848a8a8a8a8a610e37565b505050505050505050565b6001600160a01b038316610baf5760405162461bcd60e51b8152600401610228906116b3565b6000610bb9610604565b90506000610bc684610dde565b90506000610bd384610dde565b9050610bf3838760008585604051806020016040528060008152506107df565b6000858152602081815260408083206001600160a01b038a16845290915290205484811015610c345760405162461bcd60e51b815260040161022890611592565b6000868152602081815260408083206001600160a01b03808c16808652919093528184208986039055905190918716907fc3d58168c5ae7397731d063d5bbf3d657854427343f4c083240f7aacaa2d0f6290610c93908b908b906118ed565b60405180910390a4610980848860008686604051806020016040528060008152506107df565b610ccb846001600160a01b03166105dc565b156107df5760405163bc197c8160e01b81526001600160a01b0385169063bc197c8190610d049089908990889088908890600401611402565b602060405180830381600087803b158015610d1e57600080fd5b505af1925050508015610d4e575060408051601f3d908101601f19168201909252610d4b91810190611335565b60015b610dae57610d5a6119e6565b806308c379a01415610d945750610d6f6119fd565b80610d7a5750610d96565b8060405162461bcd60e51b815260040161022891906114f1565b505b60405162461bcd60e51b815260040161022890611890565b6001600160e01b0319811663bc197c8160e01b146109805760405162461bcd60e51b815260040161022890611504565b60408051600180825281830190925260609160009190602080830190803683370190505090508281600081518110610e2657634e487b7160e01b600052603260045260246000fd5b602090810291909101015292915050565b610e49846001600160a01b03166105dc565b156107df5760405163f23a6e6160e01b81526001600160a01b0385169063f23a6e6190610e829089908990889088908890600401611460565b602060405180830381600087803b158015610e9c57600080fd5b505af1925050508015610ecc575060408051601f3d908101601f19168201909252610ec991810190611335565b60015b610ed857610d5a6119e6565b6001600160e01b0319811663f23a6e6160e01b146109805760405162461bcd60e51b815260040161022890611504565b80356001600160a01b038116811461029a57600080fd5b600082601f830112610f2f578081fd5b81356020610f3c826118fb565b604051610f498282611972565b838152828101915085830183850287018401881015610f66578586fd5b855b85811015610f8457813584529284019290840190600101610f68565b5090979650505050505050565b600082601f830112610fa1578081fd5b813567ffffffffffffffff811115610fbb57610fbb6119d0565b604051610fd2601f8301601f191660200182611972565b818152846020838601011115610fe6578283fd5b816020850160208301379081016020019190915292915050565b600060208284031215611011578081fd5b61101a82610f08565b9392505050565b60008060408385031215611033578081fd5b61103c83610f08565b915061104a60208401610f08565b90509250929050565b600080600080600060a0868803121561106a578081fd5b61107386610f08565b945061108160208701610f08565b9350604086013567ffffffffffffffff8082111561109d578283fd5b6110a989838a01610f1f565b945060608801359150808211156110be578283fd5b6110ca89838a01610f1f565b935060808801359150808211156110df578283fd5b506110ec88828901610f91565b9150509295509295909350565b600080600080600060a08688031215611110578081fd5b61111986610f08565b945061112760208701610f08565b93506040860135925060608601359150608086013567ffffffffffffffff811115611150578182fd5b6110ec88828901610f91565b6000806040838503121561116e578182fd5b61117783610f08565b91506020830135801515811461118b578182fd5b809150509250929050565b600080604083850312156111a8578182fd5b6111b183610f08565b946020939093013593505050565b6000806000606084860312156111d3578283fd5b6111dc84610f08565b95602085013595506040909401359392505050565b60008060008060808587031215611206578384fd5b61120f85610f08565b93506020850135925060408501359150606085013567ffffffffffffffff811115611238578182fd5b61124487828801610f91565b91505092959194509250565b60008060408385031215611262578081fd5b823567ffffffffffffffff80821115611279578283fd5b818501915085601f83011261128c578283fd5b81356020611299826118fb565b6040516112a68282611972565b8381528281019150858301838502870184018b10156112c3578788fd5b8796505b848710156112ec576112d881610f08565b8352600196909601959183019183016112c7565b5096505086013592505080821115611302578283fd5b5061130f85828601610f1f565b9150509250929050565b60006020828403121561132a578081fd5b813561101a81611a8f565b600060208284031215611346578081fd5b815161101a81611a8f565b600060208284031215611362578081fd5b5035919050565b6000815180845260208085019450808401835b838110156113985781518752958201959082019060010161137c565b509495945050505050565b60008151808452815b818110156113c8576020818501810151868301820152016113ac565b818111156113d95782602083870101525b50601f01601f19169290920160200192915050565b6001600160a01b0391909116815260200190565b6001600160a01b0386811682528516602082015260a06040820181905260009061142e90830186611369565b82810360608401526114408186611369565b9050828103608084015261145481856113a3565b98975050505050505050565b6001600160a01b03868116825285166020820152604081018490526060810183905260a06080820181905260009061149a908301846113a3565b979650505050505050565b60006020825261101a6020830184611369565b6000604082526114cb6040830185611369565b82810360208401526114dd8185611369565b95945050505050565b901515815260200190565b60006020825261101a60208301846113a3565b60208082526028908201527f455243313135353a204552433131353552656365697665722072656a656374656040820152676420746f6b656e7360c01b606082015260800190565b60208082526026908201527f4f776e61626c653a206e6577206f776e657220697320746865207a65726f206160408201526564647265737360d01b606082015260800190565b60208082526024908201527f455243313135353a206275726e20616d6f756e7420657863656564732062616c604082015263616e636560e01b606082015260800190565b6020808252602a908201527f455243313135353a2061646472657373207a65726f206973206e6f742061207660408201526930b634b21037bbb732b960b11b606082015260800190565b6020808252602e908201527f455243313135353a2063616c6c6572206973206e6f7420746f6b656e206f776e60408201526d195c881bdc88185c1c1c9bdd995960921b606082015260800190565b60208082526025908201527f455243313135353a207472616e7366657220746f20746865207a65726f206164604082015264647265737360d81b606082015260800190565b60208082526023908201527f455243313135353a206275726e2066726f6d20746865207a65726f206164647260408201526265737360e81b606082015260800190565b6020808252602a908201527f455243313135353a20696e73756666696369656e742062616c616e636520666f60408201526939103a3930b739b332b960b11b606082015260800190565b6020808252818101527f4f776e61626c653a2063616c6c6572206973206e6f7420746865206f776e6572604082015260600190565b60208082526029908201527f455243313135353a2073657474696e6720617070726f76616c20737461747573604082015268103337b91039b2b63360b91b606082015260800190565b60208082526029908201527f455243313135353a206163636f756e747320616e6420696473206c656e677468604082015268040dad2e6dac2e8c6d60bb1b606082015260800190565b60208082526028908201527f455243313135353a2069647320616e6420616d6f756e7473206c656e677468206040820152670dad2e6dac2e8c6d60c31b606082015260800190565b60208082526021908201527f455243313135353a206d696e7420746f20746865207a65726f206164647265736040820152607360f81b606082015260800190565b60208082526034908201527f455243313135353a207472616e7366657220746f206e6f6e2d455243313135356040820152732932b1b2b4bb32b91034b6b83632b6b2b73a32b960611b606082015260800190565b90815260200190565b918252602082015260400190565b600067ffffffffffffffff821115611915576119156119d0565b5060209081020190565b60008219821115611932576119326119ba565b500190565b60028104600182168061194b57607f821691505b6020821081141561196c57634e487b7160e01b600052602260045260246000fd5b50919050565b601f8201601f1916810167ffffffffffffffff81118282101715611998576119986119d0565b6040525050565b60006000198214156119b3576119b36119ba565b5060010190565b634e487b7160e01b600052601160045260246000fd5b634e487b7160e01b600052604160045260246000fd5b600060033d11156104ec57600481823e5160e01c90565b600060443d1015611a0d576104ec565b6040516003193d81016004833e81513d67ffffffffffffffff8160248401118184111715611a3f5750505050506104ec565b8285019150815181811115611a59575050505050506104ec565b843d8701016020828501011115611a75575050505050506104ec565b611a8460208286010187611972565b509094505050505090565b6001600160e01b0319811681146105c157600080fdfea2646970667358221220065d1ee051daca9586cb687041ac93c79c68b6d69c05be0642297edcede5787064736f6c6343000801003368747470733a2f2f736861726465756d2e636f6d2f6170692f746f6b656e2f7b69647d2e6a736f6e",
  "linkReferences": {},
  "deployedLinkReferences": {}
}