{
  "_format": "hh-sol-artifact-1",
  "contractName": "MyNFT",
  "sourceName": "contracts/MyNFT.sol",
  "abi": [
    {
      "inputs": [],
      "stateMutability": "nonpayable",
      "type": "constructor"
    },
    {
      "anonymous": false,
      "inputs": [
        {
          "indexed": true,
          "internalType": "address",
          "name": "owner",
          "type": "address"
        },
        {
          "indexed": true,
          "internalType": "address",
          "name": "approved",
          "type": "address"
        },
        {
          "indexed": true,
          "internalType": "uint256",
          "name": "tokenId",
          "type": "uint256"
        }
      ],
      "name": "Approval",
      "type": "event"
    },
    {
      "anonymous": false,
      "inputs": [
        {
          "indexed": true,
          "internalType": "address",
          "name": "owner",
          "type": "address"
        },
        {
          "indexed": true,
          "internalType": "address",
          "name": "operator",
          "type": "address"
        },
        {
          "indexed": false,
          "internalType": "bool",
          "name": "approved",
          "type": "bool"
        }
      ],
      "name": "ApprovalForAll",
      "type": "event"
    },
    {
      "anonymous": false,
      "inputs": [
        {
          "indexed": true,
          "internalType": "address",
          "name": "previousOwner",
          "type": "address"
        },
        {
          "indexed": true,
          "internalType": "address",
          "name": "newOwner",
          "type": "address"
        }
      ],
      "name": "OwnershipTransferred",
      "type": "event"
    },
    {
      "anonymous": false,
      "inputs": [
        {
          "indexed": true,
          "internalType": "address",
          "name": "from",
          "type": "address"
        },
        {
          "indexed": true,
          "internalType": "address",
          "name": "to",
          "type": "address"
        },
        {
          "indexed": true,
          "internalType": "uint256",
          "name": "tokenId",
          "type": "uint256"
        }
      ],
      "name": "Transfer",
      "type": "event"
    },
    {
      "inputs": [
        {
          "internalType": "address",
          "name": "to",
          "type": "address"
        },
        {
          "internalType": "uint256",
          "name": "tokenId",
          "type": "uint256"
        }
      ],
      "name": "approve",
      "outputs": [],
      "stateMutability": "nonpayable",
      "type": "function"
    },
    {
      "inputs": [
        {
          "internalType": "address",
          "name": "owner",
          "type": "address"
        }
      ],
      "name": "balanceOf",
      "outputs": [
        {
          "internalType": "uint256",
          "name": "",
          "type": "uint256"
        }
      ],
      "stateMutability": "view",
      "type": "function"
    },
    {
      "inputs": [
        {
          "internalType": "uint256",
          "name": "tokenId",
          "type": "uint256"
        }
      ],
      "name": "getApproved",
      "outputs": [
        {
          "internalType": "address",
          "name": "",
          "type": "address"
        }
      ],
      "stateMutability": "view",
      "type": "function"
    },
    {
      "inputs": [
        {
          "internalType": "address",
          "name": "owner",
          "type": "address"
        },
        {
          "internalType": "address",
          "name": "operator",
          "type": "address"
        }
      ],
      "name": "isApprovedForAll",
      "outputs": [
        {
          "internalType": "bool",
          "name": "",
          "type": "bool"
        }
      ],
      "stateMutability": "view",
      "type": "function"
    },
    {
      "inputs": [
        {
          "internalType": "address",
          "name": "to",
          "type": "address"
        },
        {
          "internalType": "uint256",
          "name": "tokenId",
          "type": "uint256"
        }
      ],
      "name": "mint",
      "outputs": [],
      "stateMutability": "nonpayable",
      "type": "function"
    },
    {
      "inputs": [],
      "name": "name",
      "outputs": [
        {
          "internalType": "string",
          "name": "",
          "type": "string"
        }
      ],
      "stateMutability": "view",
      "type": "function"
    },
    {
      "inputs": [],
      "name": "owner",
      "outputs": [
        {
          "internalType": "address",
          "name": "",
          "type": "address"
        }
      ],
      "stateMutability": "view",
      "type": "function"
    },
    {
      "inputs": [
        {
          "internalType": "uint256",
          "name": "tokenId",
          "type": "uint256"
        }
      ],
      "name": "ownerOf",
      "outputs": [
        {
          "internalType": "address",
          "name": "",
          "type": "address"
        }
      ],
      "stateMutability": "view",
      "type": "function"
    },
    {
      "inputs": [],
      "name": "renounceOwnership",
      "outputs": [],
      "stateMutability": "nonpayable",
      "type": "function"
    },
    {
      "inputs": [
        {
          "internalType": "address",
          "name": "from",
          "type": "address"
        },
        {
          "internalType": "address",
          "name": "to",
          "type": "address"
        },
        {
          "internalType": "uint256",
          "name": "tokenId",
          "type": "uint256"
        }
      ],
      "name": "safeTransferFrom",
      "outputs": [],
      "stateMutability": "nonpayable",
      "type": "function"
    },
    {
      "inputs": [
        {
          "internalType": "address",
          "name": "from",
          "type": "address"
        },
        {
          "internalType": "address",
          "name": "to",
          "type": "address"
        },
        {
          "internalType": "uint256",
          "name": "tokenId",
          "type": "uint256"
        },
        {
          "internalType": "bytes",
          "name": "data",
          "type": "bytes"
        }
      ],
      "name": "safeTransferFrom",
      "outputs": [],
      "stateMutability": "nonpayable",
      "type": "function"
    },
    {
      "inputs": [
        {
          "internalType": "address",
          "name": "operator",
          "type": "address"
        },
        {
          "internalType": "bool",
          "name": "approved",
          "type": "bool"
        }
      ],
      "name": "setApprovalForAll",
      "outputs": [],
      "stateMutability": "nonpayable",
      "type": "function"
    },
    {
      "inputs": [
        {
          "internalType": "bytes4",
          "name": "interfaceId",
          "type": "bytes4"
        }
      ],
      "name": "supportsInterface",
      "outputs": [
        {
          "internalType": "bool",
          "name": "",
          "type": "bool"
        }
      ],
      "stateMutability": "view",
      "type": "function"
    },
    {
      "inputs": [],
      "name": "symbol",
      "outputs": [
        {
          "internalType": "string",
          "name": "",
          "type": "string"
        }
      ],
      "stateMutability": "view",
      "type": "function"
    },
    {
      "inputs": [
        {
          "internalType": "uint256",
          "name": "index",
          "type": "uint256"
        }
      ],
      "name": "tokenByIndex",
      "outputs": [
        {
          "internalType": "uint256",
          "name": "",
          "type": "uint256"
        }
      ],
      "stateMutability": "view",
      "type": "function"
    },
    {
      "inputs": [
        {
          "internalType": "address",
          "name": "owner",
          "type": "address"
        },
        {
          "internalType": "uint256",
          "name": "index",
          "type": "uint256"
        }
      ],
      "name": "tokenOfOwnerByIndex",
      "outputs": [
        {
          "internalType": "uint256",
          "name": "",
          "type": "uint256"
        }
      ],
      "stateMutability": "view",
      "type": "function"
    },
    {
      "inputs": [
        {
          "internalType": "uint256",
          "name": "tokenId",
          "type": "uint256"
        }
      ],
      "name": "tokenURI",
      "outputs": [
        {
          "internalType": "string",
          "name": "",
          "type": "string"
        }
      ],
      "stateMutability": "view",
      "type": "function"
    },
    {
      "inputs": [],
      "name": "totalSupply",
      "outputs": [
        {
          "internalType": "uint256",
          "name": "",
          "type": "uint256"
        }
      ],
      "stateMutability": "view",
      "type": "function"
    },
    {
      "inputs": [
        {
          "internalType": "address",
          "name": "from",
          "type": "address"
        },
        {
          "internalType": "address",
          "name": "to",
          "type": "address"
        },
        {
          "internalType": "uint256",
          "name": "tokenId",
          "type": "uint256"
        }
      ],
      "name": "transferFrom",
      "outputs": [],
      "stateMutability": "nonpayable",
      "type": "function"
    },
    {
      "inputs": [
        {
          "internalType": "address",
          "name": "newOwner",
          "type": "address"
        }
      ],
      "name": "transferOwnership",
      "outputs": [],
      "stateMutability": "nonpayable",
      "type": "function"
    }
  ],
  "bytecode": "0x60806040523480156200001157600080fd5b506040805180820182526005815264135e53919560da1b6020808301918252835180850190945260048452631353919560e21b9084015281519192916200005b91600091620000ea565b50805162000071906001906020840190620000ea565b5050506200008e620000886200009460201b60201c565b62000098565b620001cd565b3390565b600a80546001600160a01b038381166001600160a01b0319831681179093556040519116919082907f8be0079c531659141344cd1fd0a4f28419497f9722a3daafe3b4186f6b6457e090600090a35050565b828054620000f89062000190565b90600052602060002090601f0160209004810192826200011c576000855562000167565b82601f106200013757805160ff191683800117855562000167565b8280016001018555821562000167579182015b82811115620001675782518255916020019190600101906200014a565b506200017592915062000179565b5090565b5b808211156200017557600081556001016200017a565b600281046001821680620001a557607f821691505b60208210811415620001c757634e487b7160e01b600052602260045260246000fd5b50919050565b6119e780620001dd6000396000f3fe608060405234801561001057600080fd5b506004361061012c5760003560e01c80636352211e116100ad578063a22cb46511610071578063a22cb46514610256578063b88d4fde14610269578063c87b56dd1461027c578063e985e9c51461028f578063f2fde38b146102a25761012c565b80636352211e1461021857806370a082311461022b578063715018a61461023e5780638da5cb5b1461024657806395d89b411461024e5761012c565b806323b872dd116100f457806323b872dd146101b95780632f745c59146101cc57806340c10f19146101df57806342842e0e146101f25780634f6ccce7146102055761012c565b806301ffc9a71461013157806306fdde031461015a578063081812fc1461016f578063095ea7b31461018f57806318160ddd146101a4575b600080fd5b61014461013f366004611388565b6102b5565b6040516101519190611484565b60405180910390f35b6101626102e2565b604051610151919061148f565b61018261017d3660046113c0565b610374565b6040516101519190611433565b6101a261019d36600461135f565b61039b565b005b6101ac61043c565b60405161015191906118f2565b6101a26101c7366004611215565b610442565b6101ac6101da36600461135f565b61047a565b6101a26101ed36600461135f565b6104cc565b6101a2610200366004611215565b6104e2565b6101ac6102133660046113c0565b6104fd565b6101826102263660046113c0565b610558565b6101ac6102393660046111c9565b61058c565b6101a26105d0565b6101826105e4565b6101626105f3565b6101a2610264366004611325565b610602565b6101a2610277366004611250565b610614565b61016261028a3660046113c0565b610653565b61014461029d3660046111e3565b6106ba565b6101a26102b03660046111c9565b6106e8565b60006001600160e01b0319821663780e9d6360e01b14806102da57506102da82610722565b90505b919050565b6060600080546102f19061194a565b80601f016020809104026020016040519081016040528092919081815260200182805461031d9061194a565b801561036a5780601f1061033f5761010080835404028352916020019161036a565b820191906000526020600020905b81548152906001019060200180831161034d57829003601f168201915b5050505050905090565b600061037f82610762565b506000908152600460205260409020546001600160a01b031690565b60006103a682610558565b9050806001600160a01b0316836001600160a01b031614156103e35760405162461bcd60e51b81526004016103da906117b3565b60405180910390fd5b806001600160a01b03166103f5610787565b6001600160a01b0316148061041157506104118161029d610787565b61042d5760405162461bcd60e51b81526004016103da906117f4565b610437838361078b565b505050565b60085490565b61045361044d610787565b826107f9565b61046f5760405162461bcd60e51b81526004016103da906114a2565b610437838383610858565b60006104858361058c565b82106104a35760405162461bcd60e51b81526004016103da906114ef565b506001600160a01b03919091166000908152600660209081526040808320938352929052205490565b6104d4610995565b6104de82826109d4565b5050565b61043783838360405180602001604052806000815250610614565b600061050761043c565b82106105255760405162461bcd60e51b81526004016103da90611851565b6008828154811061054657634e487b7160e01b600052603260045260246000fd5b90600052602060002001549050919050565b60008061056483610ac9565b90506001600160a01b0381166102da5760405162461bcd60e51b81526004016103da9061177c565b60006001600160a01b0382166105b45760405162461bcd60e51b81526004016103da906116c9565b506001600160a01b031660009081526003602052604090205490565b6105d8610995565b6105e26000610ae4565b565b600a546001600160a01b031690565b6060600180546102f19061194a565b6104de61060d610787565b8383610b36565b61062561061f610787565b836107f9565b6106415760405162461bcd60e51b81526004016103da906114a2565b61064d84848484610bd9565b50505050565b606061065e82610762565b6000610668610c0c565b9050600081511161068857604051806020016040528060008152506106b3565b8061069284610c1e565b6040516020016106a3929190611404565b6040516020818303038152906040525b9392505050565b6001600160a01b03918216600090815260056020908152604080832093909416825291909152205460ff1690565b6106f0610995565b6001600160a01b0381166107165760405162461bcd60e51b81526004016103da9061158c565b61071f81610ae4565b50565b60006001600160e01b031982166380ac58cd60e01b148061075357506001600160e01b03198216635b5e139f60e01b145b806102da57506102da82610cc9565b61076b81610ce2565b61071f5760405162461bcd60e51b81526004016103da9061177c565b3390565b600081815260046020526040902080546001600160a01b0319166001600160a01b03841690811790915581906107c082610558565b6001600160a01b03167f8c5be1e5ebec7d5bd14f71427d1e84f3dd0314c0f7b2291e5b200ac8c7c3b92560405160405180910390a45050565b60008061080583610558565b9050806001600160a01b0316846001600160a01b0316148061082c575061082c81856106ba565b806108505750836001600160a01b031661084584610374565b6001600160a01b0316145b949350505050565b826001600160a01b031661086b82610558565b6001600160a01b0316146108915760405162461bcd60e51b81526004016103da906115d2565b6001600160a01b0382166108b75760405162461bcd60e51b81526004016103da9061164e565b6108c48383836001610cff565b826001600160a01b03166108d782610558565b6001600160a01b0316146108fd5760405162461bcd60e51b81526004016103da906115d2565b600081815260046020908152604080832080546001600160a01b03199081169091556001600160a01b0387811680865260038552838620805460001901905590871680865283862080546001019055868652600290945282852080549092168417909155905184937fddf252ad1be2c89b69c2b068fc378daa952ba7f163c4a11628f55a4df523b3ef91a4610437838383600161064d565b61099d610787565b6001600160a01b03166109ae6105e4565b6001600160a01b0316146105e25760405162461bcd60e51b81526004016103da90611747565b6001600160a01b0382166109fa5760405162461bcd60e51b81526004016103da90611712565b610a0381610ce2565b15610a205760405162461bcd60e51b81526004016103da90611617565b610a2e600083836001610cff565b610a3781610ce2565b15610a545760405162461bcd60e51b81526004016103da90611617565b6001600160a01b038216600081815260036020908152604080832080546001019055848352600290915280822080546001600160a01b0319168417905551839291907fddf252ad1be2c89b69c2b068fc378daa952ba7f163c4a11628f55a4df523b3ef908290a46104de60008383600161064d565b6000908152600260205260409020546001600160a01b031690565b600a80546001600160a01b038381166001600160a01b0319831681179093556040519116919082907f8be0079c531659141344cd1fd0a4f28419497f9722a3daafe3b4186f6b6457e090600090a35050565b816001600160a01b0316836001600160a01b03161415610b685760405162461bcd60e51b81526004016103da90611692565b6001600160a01b0383811660008181526005602090815260408083209487168084529490915290819020805460ff1916851515179055517f17307eab39ab6107e8899845ad3d59bd9653f200f220920489ca2b5937696c3190610bcc908590611484565b60405180910390a3505050565b610be4848484610858565b610bf084848484610db2565b61064d5760405162461bcd60e51b81526004016103da9061153a565b60408051602081019091526000815290565b60606000610c2b83610ecd565b600101905060008167ffffffffffffffff811115610c5957634e487b7160e01b600052604160045260246000fd5b6040519080825280601f01601f191660200182016040528015610c83576020820181803683370190505b5090508181016020015b600019016f181899199a1a9b1b9c1cb0b131b232b360811b600a86061a8153600a8504945084610cbc57610cc1565b610c8d565b509392505050565b6001600160e01b031981166301ffc9a760e01b14919050565b600080610cee83610ac9565b6001600160a01b0316141592915050565b610d0b8484848461064d565b6001811115610d2c5760405162461bcd60e51b81526004016103da9061189d565b816001600160a01b038516610d4957610d4481610fa5565b610d6c565b836001600160a01b0316856001600160a01b031614610d6c57610d6c8582610fe9565b6001600160a01b038416610d8857610d8381611086565b610dab565b846001600160a01b0316846001600160a01b031614610dab57610dab848261115f565b5050505050565b6000610dc6846001600160a01b03166111a3565b15610ec257836001600160a01b031663150b7a02610de2610787565b8786866040518563ffffffff1660e01b8152600401610e049493929190611447565b602060405180830381600087803b158015610e1e57600080fd5b505af1925050508015610e4e575060408051601f3d908101601f19168201909252610e4b918101906113a4565b60015b610ea8573d808015610e7c576040519150601f19603f3d011682016040523d82523d6000602084013e610e81565b606091505b508051610ea05760405162461bcd60e51b81526004016103da9061153a565b805181602001fd5b6001600160e01b031916630a85bd0160e11b149050610850565b506001949350505050565b60008072184f03e93ff9f4daa797ed6e38ed64bf6a1f0160401b8310610f0c5772184f03e93ff9f4daa797ed6e38ed64bf6a1f0160401b830492506040015b6d04ee2d6d415b85acef81000000008310610f38576d04ee2d6d415b85acef8100000000830492506020015b662386f26fc100008310610f5657662386f26fc10000830492506010015b6305f5e1008310610f6e576305f5e100830492506008015b6127108310610f8257612710830492506004015b60648310610f94576064830492506002015b600a83106102da5760010192915050565b600880546000838152600960205260408120829055600182018355919091527ff3f7a9fe364faab93b216da50a3214154f22a0a2b415b23a84c8169e8b636ee30155565b60006001610ff68461058c565b61100091906118fb565b600083815260076020526040902054909150808214611053576001600160a01b03841660009081526006602090815260408083208584528252808320548484528184208190558352600790915290208190555b5060009182526007602090815260408084208490556001600160a01b039094168352600681528383209183525290812055565b600854600090611098906001906118fb565b600083815260096020526040812054600880549394509092849081106110ce57634e487b7160e01b600052603260045260246000fd5b9060005260206000200154905080600883815481106110fd57634e487b7160e01b600052603260045260246000fd5b600091825260208083209091019290925582815260099091526040808220849055858252812055600880548061114357634e487b7160e01b600052603160045260246000fd5b6001900381819060005260206000200160009055905550505050565b600061116a8361058c565b6001600160a01b039093166000908152600660209081526040808320868452825280832085905593825260079052919091209190915550565b6001600160a01b03163b151590565b80356001600160a01b03811681146102dd57600080fd5b6000602082840312156111da578081fd5b6106b3826111b2565b600080604083850312156111f5578081fd5b6111fe836111b2565b915061120c602084016111b2565b90509250929050565b600080600060608486031215611229578081fd5b611232846111b2565b9250611240602085016111b2565b9150604084013590509250925092565b60008060008060808587031215611265578081fd5b61126e856111b2565b935061127c602086016111b2565b925060408501359150606085013567ffffffffffffffff8082111561129f578283fd5b818701915087601f8301126112b2578283fd5b8135818111156112c4576112c4611985565b604051601f8201601f19908116603f011681019083821181831017156112ec576112ec611985565b816040528281528a6020848701011115611304578586fd5b82602086016020830137918201602001949094529598949750929550505050565b60008060408385031215611337578182fd5b611340836111b2565b915060208301358015158114611354578182fd5b809150509250929050565b60008060408385031215611371578182fd5b61137a836111b2565b946020939093013593505050565b600060208284031215611399578081fd5b81356106b38161199b565b6000602082840312156113b5578081fd5b81516106b38161199b565b6000602082840312156113d1578081fd5b5035919050565b600081518084526113f081602086016020860161191e565b601f01601f19169290920160200192915050565b6000835161141681846020880161191e565b83519083019061142a81836020880161191e565b01949350505050565b6001600160a01b0391909116815260200190565b6001600160a01b038581168252841660208201526040810183905260806060820181905260009061147a908301846113d8565b9695505050505050565b901515815260200190565b6000602082526106b360208301846113d8565b6020808252602d908201527f4552433732313a2063616c6c6572206973206e6f7420746f6b656e206f776e6560408201526c1c881bdc88185c1c1c9bdd9959609a1b606082015260800190565b6020808252602b908201527f455243373231456e756d657261626c653a206f776e657220696e646578206f7560408201526a74206f6620626f756e647360a81b606082015260800190565b60208082526032908201527f4552433732313a207472616e7366657220746f206e6f6e20455243373231526560408201527131b2b4bb32b91034b6b83632b6b2b73a32b960711b606082015260800190565b60208082526026908201527f4f776e61626c653a206e6577206f776e657220697320746865207a65726f206160408201526564647265737360d01b606082015260800190565b60208082526025908201527f4552433732313a207472616e736665722066726f6d20696e636f72726563742060408201526437bbb732b960d91b606082015260800190565b6020808252601c908201527f4552433732313a20746f6b656e20616c7265616479206d696e74656400000000604082015260600190565b60208082526024908201527f4552433732313a207472616e7366657220746f20746865207a65726f206164646040820152637265737360e01b606082015260800190565b60208082526019908201527f4552433732313a20617070726f766520746f2063616c6c657200000000000000604082015260600190565b60208082526029908201527f4552433732313a2061646472657373207a65726f206973206e6f7420612076616040820152683634b21037bbb732b960b91b606082015260800190565b6020808252818101527f4552433732313a206d696e7420746f20746865207a65726f2061646472657373604082015260600190565b6020808252818101527f4f776e61626c653a2063616c6c6572206973206e6f7420746865206f776e6572604082015260600190565b60208082526018908201527f4552433732313a20696e76616c696420746f6b656e2049440000000000000000604082015260600190565b60208082526021908201527f4552433732313a20617070726f76616c20746f2063757272656e74206f776e656040820152603960f91b606082015260800190565b6020808252603d908201527f4552433732313a20617070726f76652063616c6c6572206973206e6f7420746f60408201527f6b656e206f776e6572206f7220617070726f76656420666f7220616c6c000000606082015260800190565b6020808252602c908201527f455243373231456e756d657261626c653a20676c6f62616c20696e646578206f60408201526b7574206f6620626f756e647360a01b606082015260800190565b60208082526035908201527f455243373231456e756d657261626c653a20636f6e7365637574697665207472604082015274185b9cd9995c9cc81b9bdd081cdd5c1c1bdc9d1959605a1b606082015260800190565b90815260200190565b60008282101561191957634e487b7160e01b81526011600452602481fd5b500390565b60005b83811015611939578181015183820152602001611921565b8381111561064d5750506000910152565b60028104600182168061195e57607f821691505b6020821081141561197f57634e487b7160e01b600052602260045260246000fd5b50919050565b634e487b7160e01b600052604160045260246000fd5b6001600160e01b03198116811461071f57600080fdfea2646970667358221220f90e8f333bd764e75073855d650a63026ea5ae7fd6ba4e70c467c0ae82cb88ba64736f6c63430008010033",
  "linkReferences": {},
  "deployedLinkReferences": {}
}